{
    "_format": "hh-sol-artifact-1",
    "contractName": "TokenCreator",
    "sourceName": "contracts/TokenCreator.sol",
    "abi": [
        {
            "anonymous": false,
            "inputs": [
                {
                    "indexed": false,
                    "internalType": "address",
                    "name": "tokenaddress",
                    "type": "address"
                },
                {
                    "indexed": false,
                    "internalType": "address",
                    "name": "creator",
                    "type": "address"
                },
                {
                    "indexed": false,
                    "internalType": "string",
                    "name": "name",
                    "type": "string"
                },
                {
                    "indexed": false,
                    "internalType": "string",
                    "name": "symbol",
                    "type": "string"
                },
                {
                    "indexed": false,
                    "internalType": "uint256",
                    "name": "deci",
                    "type": "uint256"
                },
                {
                    "indexed": false,
                    "internalType": "uint256",
                    "name": "totalSupply",
                    "type": "uint256"
                },
                {
                    "indexed": false,
                    "internalType": "address",
                    "name": "userAddress",
                    "type": "address"
                }
            ],
            "name": "tokencreated",
            "type": "event"
        },
        {
            "inputs": [
                {
                    "internalType": "uint256",
                    "name": "supply",
                    "type": "uint256"
                },
                {
                    "internalType": "uint256",
                    "name": "deci",
                    "type": "uint256"
                },
                {
                    "internalType": "string",
                    "name": "name",
                    "type": "string"
                },
                {
                    "internalType": "string",
                    "name": "symbol",
                    "type": "string"
                },
                {
                    "internalType": "address",
                    "name": "userAddress",
                    "type": "address"
                }
            ],
            "name": "create",
            "outputs": [
                {
                    "internalType": "address",
                    "name": "",
                    "type": "address"
                }
            ],
            "stateMutability": "nonpayable",
            "type": "function"
        }
    ],
    "bytecode": "0x608060405234801561001057600080fd5b506129c9806100206000396000f3fe60806040523480156200001157600080fd5b50600436106200002e5760003560e01c8063de4f7bbc1462000033575b600080fd5b6200005160048036038101906200004b919062000325565b62000069565b604051620000609190620003fc565b60405180910390f35b60008086868686866040516200007f9062000101565b6200008f959493929190620004bd565b604051809103906000f080158015620000ac573d6000803e3d6000fd5b5090507f080a9bce84cab020ff349fc94f3d54a2e84720b875074cdb60157fa0996d52d6813387878a8c89604051620000ec979695949392919062000528565b60405180910390a18091505095945050505050565b6123e080620005b483390190565b6000604051905090565b600080fd5b600080fd5b6000819050919050565b620001388162000123565b81146200014457600080fd5b50565b60008135905062000158816200012d565b92915050565b600080fd5b600080fd5b6000601f19601f8301169050919050565b7f4e487b7100000000000000000000000000000000000000000000000000000000600052604160045260246000fd5b620001b38262000168565b810181811067ffffffffffffffff82111715620001d557620001d462000179565b5b80604052505050565b6000620001ea6200010f565b9050620001f88282620001a8565b919050565b600067ffffffffffffffff8211156200021b576200021a62000179565b5b620002268262000168565b9050602081019050919050565b82818337600083830152505050565b6000620002596200025384620001fd565b620001de565b90508281526020810184848401111562000278576200027762000163565b5b6200028584828562000233565b509392505050565b600082601f830112620002a557620002a46200015e565b5b8135620002b784826020860162000242565b91505092915050565b600073ffffffffffffffffffffffffffffffffffffffff82169050919050565b6000620002ed82620002c0565b9050919050565b620002ff81620002e0565b81146200030b57600080fd5b50565b6000813590506200031f81620002f4565b92915050565b600080600080600060a0868803121562000344576200034362000119565b5b6000620003548882890162000147565b9550506020620003678882890162000147565b945050604086013567ffffffffffffffff8111156200038b576200038a6200011e565b5b62000399888289016200028d565b935050606086013567ffffffffffffffff811115620003bd57620003bc6200011e565b5b620003cb888289016200028d565b9250506080620003de888289016200030e565b9150509295509295909350565b620003f681620002e0565b82525050565b6000602082019050620004136000830184620003eb565b92915050565b620004248162000123565b82525050565b600081519050919050565b600082825260208201905092915050565b60005b838110156200046657808201518184015260208101905062000449565b8381111562000476576000848401525b50505050565b600062000489826200042a565b62000495818562000435565b9350620004a781856020860162000446565b620004b28162000168565b840191505092915050565b600060a082019050620004d4600083018862000419565b620004e3602083018762000419565b8181036040830152620004f781866200047c565b905081810360608301526200050d81856200047c565b90506200051e6080830184620003eb565b9695505050505050565b600060e0820190506200053f600083018a620003eb565b6200054e6020830189620003eb565b81810360408301526200056281886200047c565b905081810360608301526200057881876200047c565b905062000589608083018662000419565b6200059860a083018562000419565b620005a760c0830184620003eb565b9897505050505050505056fe60806040523480156200001157600080fd5b50604051620023e0380380620023e083398181016040528101906200003791906200062b565b82828160039080519060200190620000519291906200033e565b5080600490805190602001906200006a9291906200033e565b5050506200008d62000081620000ed60201b60201c565b620000f560201b60201c565b83600781905550600754600a620000a5919062000874565b85620000b29190620008c5565b600681905550620000d181600654620001bb60201b620008b41760201c565b620000e281620000f560201b60201c565b505050505062000a99565b600033905090565b6000600560009054906101000a900473ffffffffffffffffffffffffffffffffffffffff16905081600560006101000a81548173ffffffffffffffffffffffffffffffffffffffff021916908373ffffffffffffffffffffffffffffffffffffffff1602179055508173ffffffffffffffffffffffffffffffffffffffff168173ffffffffffffffffffffffffffffffffffffffff167f8be0079c531659141344cd1fd0a4f28419497f9722a3daafe3b4186f6b6457e060405160405180910390a35050565b600073ffffffffffffffffffffffffffffffffffffffff168273ffffffffffffffffffffffffffffffffffffffff1614156200022e576040517f08c379a0000000000000000000000000000000000000000000000000000000008152600401620002259062000987565b60405180910390fd5b62000242600083836200033460201b60201c565b8060026000828254620002569190620009a9565b92505081905550806000808473ffffffffffffffffffffffffffffffffffffffff1673ffffffffffffffffffffffffffffffffffffffff1681526020019081526020016000206000828254620002ad9190620009a9565b925050819055508173ffffffffffffffffffffffffffffffffffffffff16600073ffffffffffffffffffffffffffffffffffffffff167fddf252ad1be2c89b69c2b068fc378daa952ba7f163c4a11628f55a4df523b3ef8360405162000314919062000a17565b60405180910390a362000330600083836200033960201b60201c565b5050565b505050565b505050565b8280546200034c9062000a63565b90600052602060002090601f016020900481019282620003705760008555620003bc565b82601f106200038b57805160ff1916838001178555620003bc565b82800160010185558215620003bc579182015b82811115620003bb5782518255916020019190600101906200039e565b5b509050620003cb9190620003cf565b5090565b5b80821115620003ea576000816000905550600101620003d0565b5090565b6000604051905090565b600080fd5b600080fd5b6000819050919050565b620004178162000402565b81146200042357600080fd5b50565b60008151905062000437816200040c565b92915050565b600080fd5b600080fd5b6000601f19601f8301169050919050565b7f4e487b7100000000000000000000000000000000000000000000000000000000600052604160045260246000fd5b620004928262000447565b810181811067ffffffffffffffff82111715620004b457620004b362000458565b5b80604052505050565b6000620004c9620003ee565b9050620004d7828262000487565b919050565b600067ffffffffffffffff821115620004fa57620004f962000458565b5b620005058262000447565b9050602081019050919050565b60005b838110156200053257808201518184015260208101905062000515565b8381111562000542576000848401525b50505050565b60006200055f6200055984620004dc565b620004bd565b9050828152602081018484840111156200057e576200057d62000442565b5b6200058b84828562000512565b509392505050565b600082601f830112620005ab57620005aa6200043d565b5b8151620005bd84826020860162000548565b91505092915050565b600073ffffffffffffffffffffffffffffffffffffffff82169050919050565b6000620005f382620005c6565b9050919050565b6200060581620005e6565b81146200061157600080fd5b50565b6000815190506200062581620005fa565b92915050565b600080600080600060a086880312156200064a5762000649620003f8565b5b60006200065a8882890162000426565b95505060206200066d8882890162000426565b945050604086015167ffffffffffffffff811115620006915762000690620003fd565b5b6200069f8882890162000593565b935050606086015167ffffffffffffffff811115620006c357620006c2620003fd565b5b620006d18882890162000593565b9250506080620006e48882890162000614565b9150509295509295909350565b7f4e487b7100000000000000000000000000000000000000000000000000000000600052601160045260246000fd5b60008160011c9050919050565b6000808291508390505b60018511156200077f57808604811115620007575762000756620006f1565b5b6001851615620007675780820291505b8081029050620007778562000720565b945062000737565b94509492505050565b6000826200079a57600190506200086d565b81620007aa57600090506200086d565b8160018114620007c35760028114620007ce5762000804565b60019150506200086d565b60ff841115620007e357620007e2620006f1565b5b8360020a915084821115620007fd57620007fc620006f1565b5b506200086d565b5060208310610133831016604e8410600b84101617156200083e5782820a905083811115620008385762000837620006f1565b5b6200086d565b6200084d84848460016200072d565b92509050818404811115620008675762000866620006f1565b5b81810290505b9392505050565b6000620008818262000402565b91506200088e8362000402565b9250620008bd7fffffffffffffffffffffffffffffffffffffffffffffffffffffffffffffffff848462000788565b905092915050565b6000620008d28262000402565b9150620008df8362000402565b9250817fffffffffffffffffffffffffffffffffffffffffffffffffffffffffffffffff04831182151516156200091b576200091a620006f1565b5b828202905092915050565b600082825260208201905092915050565b7f45524332303a206d696e7420746f20746865207a65726f206164647265737300600082015250565b60006200096f601f8362000926565b91506200097c8262000937565b602082019050919050565b60006020820190508181036000830152620009a28162000960565b9050919050565b6000620009b68262000402565b9150620009c38362000402565b9250827fffffffffffffffffffffffffffffffffffffffffffffffffffffffffffffffff03821115620009fb57620009fa620006f1565b5b828201905092915050565b62000a118162000402565b82525050565b600060208201905062000a2e600083018462000a06565b92915050565b7f4e487b7100000000000000000000000000000000000000000000000000000000600052602260045260246000fd5b6000600282049050600182168062000a7c57607f821691505b6020821081141562000a935762000a9262000a34565b5b50919050565b6119378062000aa96000396000f3fe608060405234801561001057600080fd5b50600436106100ea5760003560e01c8063715018a61161008c578063a457c2d711610066578063a457c2d71461024f578063a9059cbb1461027f578063dd62ed3e146102af578063f2fde38b146102df576100ea565b8063715018a6146102095780638da5cb5b1461021357806395d89b4114610231576100ea565b806323b872dd116100c857806323b872dd1461015b578063313ce5671461018b57806339509351146101a957806370a08231146101d9576100ea565b806306fdde03146100ef578063095ea7b31461010d57806318160ddd1461013d575b600080fd5b6100f76102fb565b604051610104919061105d565b60405180910390f35b61012760048036038101906101229190611118565b61038d565b6040516101349190611173565b60405180910390f35b6101456103b0565b604051610152919061119d565b60405180910390f35b610175600480360381019061017091906111b8565b6103ba565b6040516101829190611173565b60405180910390f35b6101936103e9565b6040516101a09190611227565b60405180910390f35b6101c360048036038101906101be9190611118565b6103f2565b6040516101d09190611173565b60405180910390f35b6101f360048036038101906101ee9190611242565b61049c565b604051610200919061119d565b60405180910390f35b6102116104e4565b005b61021b61056c565b604051610228919061127e565b60405180910390f35b610239610596565b604051610246919061105d565b60405180910390f35b61026960048036038101906102649190611118565b610628565b6040516102769190611173565b60405180910390f35b61029960048036038101906102949190611118565b610712565b6040516102a69190611173565b60405180910390f35b6102c960048036038101906102c49190611299565b610735565b6040516102d6919061119d565b60405180910390f35b6102f960048036038101906102f49190611242565b6107bc565b005b60606003805461030a90611308565b80601f016020809104026020016040519081016040528092919081815260200182805461033690611308565b80156103835780601f1061035857610100808354040283529160200191610383565b820191906000526020600020905b81548152906001019060200180831161036657829003601f168201915b5050505050905090565b600080610398610a14565b90506103a5818585610a1c565b600191505092915050565b6000600254905090565b6000806103c5610a14565b90506103d2858285610be7565b6103dd858585610c73565b60019150509392505050565b60006012905090565b6000806103fd610a14565b9050610491818585600160008673ffffffffffffffffffffffffffffffffffffffff1673ffffffffffffffffffffffffffffffffffffffff16815260200190815260200160002060008973ffffffffffffffffffffffffffffffffffffffff1673ffffffffffffffffffffffffffffffffffffffff1681526020019081526020016000205461048c9190611369565b610a1c565b600191505092915050565b60008060008373ffffffffffffffffffffffffffffffffffffffff1673ffffffffffffffffffffffffffffffffffffffff168152602001908152602001600020549050919050565b6104ec610a14565b73ffffffffffffffffffffffffffffffffffffffff1661050a61056c565b73ffffffffffffffffffffffffffffffffffffffff1614610560576040517f08c379a00000000000000000000000000000000000000000000000000000000081526004016105579061140b565b60405180910390fd5b61056a6000610ef4565b565b6000600560009054906101000a900473ffffffffffffffffffffffffffffffffffffffff16905090565b6060600480546105a590611308565b80601f01602080910402602001604051908101604052809291908181526020018280546105d190611308565b801561061e5780601f106105f35761010080835404028352916020019161061e565b820191906000526020600020905b81548152906001019060200180831161060157829003601f168201915b5050505050905090565b600080610633610a14565b90506000600160008373ffffffffffffffffffffffffffffffffffffffff1673ffffffffffffffffffffffffffffffffffffffff16815260200190815260200160002060008673ffffffffffffffffffffffffffffffffffffffff1673ffffffffffffffffffffffffffffffffffffffff168152602001908152602001600020549050838110156106f9576040517f08c379a00000000000000000000000000000000000000000000000000000000081526004016106f09061149d565b60405180910390fd5b6107068286868403610a1c565b60019250505092915050565b60008061071d610a14565b905061072a818585610c73565b600191505092915050565b6000600160008473ffffffffffffffffffffffffffffffffffffffff1673ffffffffffffffffffffffffffffffffffffffff16815260200190815260200160002060008373ffffffffffffffffffffffffffffffffffffffff1673ffffffffffffffffffffffffffffffffffffffff16815260200190815260200160002054905092915050565b6107c4610a14565b73ffffffffffffffffffffffffffffffffffffffff166107e261056c565b73ffffffffffffffffffffffffffffffffffffffff1614610838576040517f08c379a000000000000000000000000000000000000000000000000000000000815260040161082f9061140b565b60405180910390fd5b600073ffffffffffffffffffffffffffffffffffffffff168173ffffffffffffffffffffffffffffffffffffffff1614156108a8576040517f08c379a000000000000000000000000000000000000000000000000000000000815260040161089f9061152f565b60405180910390fd5b6108b181610ef4565b50565b600073ffffffffffffffffffffffffffffffffffffffff168273ffffffffffffffffffffffffffffffffffffffff161415610924576040517f08c379a000000000000000000000000000000000000000000000000000000000815260040161091b9061159b565b60405180910390fd5b61093060008383610fba565b80600260008282546109429190611369565b92505081905550806000808473ffffffffffffffffffffffffffffffffffffffff1673ffffffffffffffffffffffffffffffffffffffff16815260200190815260200160002060008282546109979190611369565b925050819055508173ffffffffffffffffffffffffffffffffffffffff16600073ffffffffffffffffffffffffffffffffffffffff167fddf252ad1be2c89b69c2b068fc378daa952ba7f163c4a11628f55a4df523b3ef836040516109fc919061119d565b60405180910390a3610a1060008383610fbf565b5050565b600033905090565b600073ffffffffffffffffffffffffffffffffffffffff168373ffffffffffffffffffffffffffffffffffffffff161415610a8c576040517f08c379a0000000000000000000000000000000000000000000000000000000008152600401610a839061162d565b60405180910390fd5b600073ffffffffffffffffffffffffffffffffffffffff168273ffffffffffffffffffffffffffffffffffffffff161415610afc576040517f08c379a0000000000000000000000000000000000000000000000000000000008152600401610af3906116bf565b60405180910390fd5b80600160008573ffffffffffffffffffffffffffffffffffffffff1673ffffffffffffffffffffffffffffffffffffffff16815260200190815260200160002060008473ffffffffffffffffffffffffffffffffffffffff1673ffffffffffffffffffffffffffffffffffffffff168152602001908152602001600020819055508173ffffffffffffffffffffffffffffffffffffffff168373ffffffffffffffffffffffffffffffffffffffff167f8c5be1e5ebec7d5bd14f71427d1e84f3dd0314c0f7b2291e5b200ac8c7c3b92583604051610bda919061119d565b60405180910390a3505050565b6000610bf38484610735565b90507fffffffffffffffffffffffffffffffffffffffffffffffffffffffffffffffff8114610c6d5781811015610c5f576040517f08c379a0000000000000000000000000000000000000000000000000000000008152600401610c569061172b565b60405180910390fd5b610c6c8484848403610a1c565b5b50505050565b600073ffffffffffffffffffffffffffffffffffffffff168373ffffffffffffffffffffffffffffffffffffffff161415610ce3576040517f08c379a0000000000000000000000000000000000000000000000000000000008152600401610cda906117bd565b60405180910390fd5b600073ffffffffffffffffffffffffffffffffffffffff168273ffffffffffffffffffffffffffffffffffffffff161415610d53576040517f08c379a0000000000000000000000000000000000000000000000000000000008152600401610d4a9061184f565b60405180910390fd5b610d5e838383610fba565b60008060008573ffffffffffffffffffffffffffffffffffffffff1673ffffffffffffffffffffffffffffffffffffffff16815260200190815260200160002054905081811015610de4576040517f08c379a0000000000000000000000000000000000000000000000000000000008152600401610ddb906118e1565b60405180910390fd5b8181036000808673ffffffffffffffffffffffffffffffffffffffff1673ffffffffffffffffffffffffffffffffffffffff16815260200190815260200160002081905550816000808573ffffffffffffffffffffffffffffffffffffffff1673ffffffffffffffffffffffffffffffffffffffff1681526020019081526020016000206000828254610e779190611369565b925050819055508273ffffffffffffffffffffffffffffffffffffffff168473ffffffffffffffffffffffffffffffffffffffff167fddf252ad1be2c89b69c2b068fc378daa952ba7f163c4a11628f55a4df523b3ef84604051610edb919061119d565b60405180910390a3610eee848484610fbf565b50505050565b6000600560009054906101000a900473ffffffffffffffffffffffffffffffffffffffff16905081600560006101000a81548173ffffffffffffffffffffffffffffffffffffffff021916908373ffffffffffffffffffffffffffffffffffffffff1602179055508173ffffffffffffffffffffffffffffffffffffffff168173ffffffffffffffffffffffffffffffffffffffff167f8be0079c531659141344cd1fd0a4f28419497f9722a3daafe3b4186f6b6457e060405160405180910390a35050565b505050565b505050565b600081519050919050565b600082825260208201905092915050565b60005b83811015610ffe578082015181840152602081019050610fe3565b8381111561100d576000848401525b50505050565b6000601f19601f8301169050919050565b600061102f82610fc4565b6110398185610fcf565b9350611049818560208601610fe0565b61105281611013565b840191505092915050565b600060208201905081810360008301526110778184611024565b905092915050565b600080fd5b600073ffffffffffffffffffffffffffffffffffffffff82169050919050565b60006110af82611084565b9050919050565b6110bf816110a4565b81146110ca57600080fd5b50565b6000813590506110dc816110b6565b92915050565b6000819050919050565b6110f5816110e2565b811461110057600080fd5b50565b600081359050611112816110ec565b92915050565b6000806040838503121561112f5761112e61107f565b5b600061113d858286016110cd565b925050602061114e85828601611103565b9150509250929050565b60008115159050919050565b61116d81611158565b82525050565b60006020820190506111886000830184611164565b92915050565b611197816110e2565b82525050565b60006020820190506111b2600083018461118e565b92915050565b6000806000606084860312156111d1576111d061107f565b5b60006111df868287016110cd565b93505060206111f0868287016110cd565b925050604061120186828701611103565b9150509250925092565b600060ff82169050919050565b6112218161120b565b82525050565b600060208201905061123c6000830184611218565b92915050565b6000602082840312156112585761125761107f565b5b6000611266848285016110cd565b91505092915050565b611278816110a4565b82525050565b6000602082019050611293600083018461126f565b92915050565b600080604083850312156112b0576112af61107f565b5b60006112be858286016110cd565b92505060206112cf858286016110cd565b9150509250929050565b7f4e487b7100000000000000000000000000000000000000000000000000000000600052602260045260246000fd5b6000600282049050600182168061132057607f821691505b60208210811415611334576113336112d9565b5b50919050565b7f4e487b7100000000000000000000000000000000000000000000000000000000600052601160045260246000fd5b6000611374826110e2565b915061137f836110e2565b9250827fffffffffffffffffffffffffffffffffffffffffffffffffffffffffffffffff038211156113b4576113b361133a565b5b828201905092915050565b7f4f776e61626c653a2063616c6c6572206973206e6f7420746865206f776e6572600082015250565b60006113f5602083610fcf565b9150611400826113bf565b602082019050919050565b60006020820190508181036000830152611424816113e8565b9050919050565b7f45524332303a2064656372656173656420616c6c6f77616e63652062656c6f7760008201527f207a65726f000000000000000000000000000000000000000000000000000000602082015250565b6000611487602583610fcf565b91506114928261142b565b604082019050919050565b600060208201905081810360008301526114b68161147a565b9050919050565b7f4f776e61626c653a206e6577206f776e657220697320746865207a65726f206160008201527f6464726573730000000000000000000000000000000000000000000000000000602082015250565b6000611519602683610fcf565b9150611524826114bd565b604082019050919050565b600060208201905081810360008301526115488161150c565b9050919050565b7f45524332303a206d696e7420746f20746865207a65726f206164647265737300600082015250565b6000611585601f83610fcf565b91506115908261154f565b602082019050919050565b600060208201905081810360008301526115b481611578565b9050919050565b7f45524332303a20617070726f76652066726f6d20746865207a65726f2061646460008201527f7265737300000000000000000000000000000000000000000000000000000000602082015250565b6000611617602483610fcf565b9150611622826115bb565b604082019050919050565b600060208201905081810360008301526116468161160a565b9050919050565b7f45524332303a20617070726f766520746f20746865207a65726f20616464726560008201527f7373000000000000000000000000000000000000000000000000000000000000602082015250565b60006116a9602283610fcf565b91506116b48261164d565b604082019050919050565b600060208201905081810360008301526116d88161169c565b9050919050565b7f45524332303a20696e73756666696369656e7420616c6c6f77616e6365000000600082015250565b6000611715601d83610fcf565b9150611720826116df565b602082019050919050565b6000602082019050818103600083015261174481611708565b9050919050565b7f45524332303a207472616e736665722066726f6d20746865207a65726f20616460008201527f6472657373000000000000000000000000000000000000000000000000000000602082015250565b60006117a7602583610fcf565b91506117b28261174b565b604082019050919050565b600060208201905081810360008301526117d68161179a565b9050919050565b7f45524332303a207472616e7366657220746f20746865207a65726f206164647260008201527f6573730000000000000000000000000000000000000000000000000000000000602082015250565b6000611839602383610fcf565b9150611844826117dd565b604082019050919050565b600060208201905081810360008301526118688161182c565b9050919050565b7f45524332303a207472616e7366657220616d6f756e742065786365656473206260008201527f616c616e63650000000000000000000000000000000000000000000000000000602082015250565b60006118cb602683610fcf565b91506118d68261186f565b604082019050919050565b600060208201905081810360008301526118fa816118be565b905091905056fea26469706673582212200dd2bf2caaf2695b1a60929f7eae11dab497ff1e0a4014d48e04384b8833b82364736f6c634300080a0033a264697066735822122020f6b190ce1d265778de041f993b031a43effddee99c511adc46cb86c048cfd764736f6c634300080a0033",
    "linkReferences": {},
    "deployedLinkReferences": {}
}